{
  "_format": "hh-sol-artifact-1",
  "contractName": "ElectionManager",
  "sourceName": "contracts/ElectionManager.sol",
  "abi": [
    {
      "inputs": [
        {
          "internalType": "address",
          "name": "_voterRegistry",
          "type": "address"
        }
      ],
      "stateMutability": "nonpayable",
      "type": "constructor"
    },
    {
      "inputs": [],
      "name": "AccessControlBadConfirmation",
      "type": "error"
    },
    {
      "inputs": [
        {
          "internalType": "address",
          "name": "account",
          "type": "address"
        },
        {
          "internalType": "bytes32",
          "name": "neededRole",
          "type": "bytes32"
        }
      ],
      "name": "AccessControlUnauthorizedAccount",
      "type": "error"
    },
    {
      "inputs": [],
      "name": "ReentrancyGuardReentrantCall",
      "type": "error"
    },
    {
      "anonymous": false,
      "inputs": [
        {
          "indexed": true,
          "internalType": "uint256",
          "name": "electionId",
          "type": "uint256"
        },
        {
          "indexed": true,
          "internalType": "uint256",
          "name": "candidateId",
          "type": "uint256"
        },
        {
          "indexed": false,
          "internalType": "string",
          "name": "name",
          "type": "string"
        }
      ],
      "name": "CandidateAdded",
      "type": "event"
    },
    {
      "anonymous": false,
      "inputs": [
        {
          "indexed": true,
          "internalType": "uint256",
          "name": "electionId",
          "type": "uint256"
        },
        {
          "indexed": false,
          "internalType": "uint256",
          "name": "timestamp",
          "type": "uint256"
        }
      ],
      "name": "ElectionClosed",
      "type": "event"
    },
    {
      "anonymous": false,
      "inputs": [
        {
          "indexed": true,
          "internalType": "uint256",
          "name": "electionId",
          "type": "uint256"
        },
        {
          "indexed": false,
          "internalType": "string",
          "name": "name",
          "type": "string"
        },
        {
          "indexed": false,
          "internalType": "uint256",
          "name": "startTime",
          "type": "uint256"
        },
        {
          "indexed": false,
          "internalType": "uint256",
          "name": "endTime",
          "type": "uint256"
        }
      ],
      "name": "ElectionCreated",
      "type": "event"
    },
    {
      "anonymous": false,
      "inputs": [
        {
          "indexed": true,
          "internalType": "uint256",
          "name": "electionId",
          "type": "uint256"
        },
        {
          "indexed": false,
          "internalType": "uint256",
          "name": "timestamp",
          "type": "uint256"
        }
      ],
      "name": "ElectionStarted",
      "type": "event"
    },
    {
      "anonymous": false,
      "inputs": [
        {
          "indexed": true,
          "internalType": "uint256",
          "name": "electionId",
          "type": "uint256"
        },
        {
          "indexed": false,
          "internalType": "uint256",
          "name": "timestamp",
          "type": "uint256"
        }
      ],
      "name": "ElectionTallied",
      "type": "event"
    },
    {
      "anonymous": false,
      "inputs": [
        {
          "indexed": true,
          "internalType": "uint256",
          "name": "electionId",
          "type": "uint256"
        },
        {
          "indexed": false,
          "internalType": "uint256",
          "name": "timestamp",
          "type": "uint256"
        }
      ],
      "name": "ResultsPublished",
      "type": "event"
    },
    {
      "anonymous": false,
      "inputs": [
        {
          "indexed": true,
          "internalType": "bytes32",
          "name": "role",
          "type": "bytes32"
        },
        {
          "indexed": true,
          "internalType": "bytes32",
          "name": "previousAdminRole",
          "type": "bytes32"
        },
        {
          "indexed": true,
          "internalType": "bytes32",
          "name": "newAdminRole",
          "type": "bytes32"
        }
      ],
      "name": "RoleAdminChanged",
      "type": "event"
    },
    {
      "anonymous": false,
      "inputs": [
        {
          "indexed": true,
          "internalType": "bytes32",
          "name": "role",
          "type": "bytes32"
        },
        {
          "indexed": true,
          "internalType": "address",
          "name": "account",
          "type": "address"
        },
        {
          "indexed": true,
          "internalType": "address",
          "name": "sender",
          "type": "address"
        }
      ],
      "name": "RoleGranted",
      "type": "event"
    },
    {
      "anonymous": false,
      "inputs": [
        {
          "indexed": true,
          "internalType": "bytes32",
          "name": "role",
          "type": "bytes32"
        },
        {
          "indexed": true,
          "internalType": "address",
          "name": "account",
          "type": "address"
        },
        {
          "indexed": true,
          "internalType": "address",
          "name": "sender",
          "type": "address"
        }
      ],
      "name": "RoleRevoked",
      "type": "event"
    },
    {
      "anonymous": false,
      "inputs": [
        {
          "indexed": true,
          "internalType": "uint256",
          "name": "electionId",
          "type": "uint256"
        },
        {
          "indexed": true,
          "internalType": "address",
          "name": "voter",
          "type": "address"
        },
        {
          "indexed": false,
          "internalType": "uint256",
          "name": "candidateId",
          "type": "uint256"
        }
      ],
      "name": "VoteRevealed",
      "type": "event"
    },
    {
      "anonymous": false,
      "inputs": [
        {
          "indexed": true,
          "internalType": "uint256",
          "name": "electionId",
          "type": "uint256"
        },
        {
          "indexed": true,
          "internalType": "address",
          "name": "voter",
          "type": "address"
        },
        {
          "indexed": false,
          "internalType": "bytes32",
          "name": "voteCommitment",
          "type": "bytes32"
        },
        {
          "indexed": false,
          "internalType": "uint256",
          "name": "timestamp",
          "type": "uint256"
        }
      ],
      "name": "VoteSubmitted",
      "type": "event"
    },
    {
      "inputs": [],
      "name": "ADMIN_ROLE",
      "outputs": [
        {
          "internalType": "bytes32",
          "name": "",
          "type": "bytes32"
        }
      ],
      "stateMutability": "view",
      "type": "function"
    },
    {
      "inputs": [],
      "name": "DEFAULT_ADMIN_ROLE",
      "outputs": [
        {
          "internalType": "bytes32",
          "name": "",
          "type": "bytes32"
        }
      ],
      "stateMutability": "view",
      "type": "function"
    },
    {
      "inputs": [],
      "name": "ELECTION_MANAGER_ROLE",
      "outputs": [
        {
          "internalType": "bytes32",
          "name": "",
          "type": "bytes32"
        }
      ],
      "stateMutability": "view",
      "type": "function"
    },
    {
      "inputs": [
        {
          "internalType": "uint256",
          "name": "_electionId",
          "type": "uint256"
        },
        {
          "internalType": "string",
          "name": "_name",
          "type": "string"
        },
        {
          "internalType": "string",
          "name": "_description",
          "type": "string"
        },
        {
          "internalType": "string",
          "name": "_ipfsCID",
          "type": "string"
        }
      ],
      "name": "addCandidate",
      "outputs": [],
      "stateMutability": "nonpayable",
      "type": "function"
    },
    {
      "inputs": [
        {
          "internalType": "uint256",
          "name": "",
          "type": "uint256"
        }
      ],
      "name": "candidateCounts",
      "outputs": [
        {
          "internalType": "uint256",
          "name": "",
          "type": "uint256"
        }
      ],
      "stateMutability": "view",
      "type": "function"
    },
    {
      "inputs": [
        {
          "internalType": "uint256",
          "name": "",
          "type": "uint256"
        },
        {
          "internalType": "uint256",
          "name": "",
          "type": "uint256"
        }
      ],
      "name": "candidates",
      "outputs": [
        {
          "internalType": "uint256",
          "name": "id",
          "type": "uint256"
        },
        {
          "internalType": "string",
          "name": "name",
          "type": "string"
        },
        {
          "internalType": "string",
          "name": "description",
          "type": "string"
        },
        {
          "internalType": "string",
          "name": "ipfsCID",
          "type": "string"
        },
        {
          "internalType": "uint256",
          "name": "voteCount",
          "type": "uint256"
        },
        {
          "internalType": "bool",
          "name": "exists",
          "type": "bool"
        }
      ],
      "stateMutability": "view",
      "type": "function"
    },
    {
      "inputs": [
        {
          "internalType": "uint256",
          "name": "_electionId",
          "type": "uint256"
        }
      ],
      "name": "closeElection",
      "outputs": [],
      "stateMutability": "nonpayable",
      "type": "function"
    },
    {
      "inputs": [
        {
          "internalType": "string",
          "name": "_name",
          "type": "string"
        },
        {
          "internalType": "string",
          "name": "_description",
          "type": "string"
        },
        {
          "internalType": "uint256",
          "name": "_startTime",
          "type": "uint256"
        },
        {
          "internalType": "uint256",
          "name": "_endTime",
          "type": "uint256"
        },
        {
          "internalType": "enum ElectionManager.PrivacyMode",
          "name": "_privacyMode",
          "type": "uint8"
        },
        {
          "internalType": "string",
          "name": "_ipfsCID",
          "type": "string"
        }
      ],
      "name": "createElection",
      "outputs": [
        {
          "internalType": "uint256",
          "name": "",
          "type": "uint256"
        }
      ],
      "stateMutability": "nonpayable",
      "type": "function"
    },
    {
      "inputs": [],
      "name": "electionCount",
      "outputs": [
        {
          "internalType": "uint256",
          "name": "",
          "type": "uint256"
        }
      ],
      "stateMutability": "view",
      "type": "function"
    },
    {
      "inputs": [
        {
          "internalType": "uint256",
          "name": "",
          "type": "uint256"
        }
      ],
      "name": "elections",
      "outputs": [
        {
          "internalType": "string",
          "name": "name",
          "type": "string"
        },
        {
          "internalType": "string",
          "name": "description",
          "type": "string"
        },
        {
          "internalType": "uint256",
          "name": "startTime",
          "type": "uint256"
        },
        {
          "internalType": "uint256",
          "name": "endTime",
          "type": "uint256"
        },
        {
          "internalType": "enum ElectionManager.ElectionStatus",
          "name": "status",
          "type": "uint8"
        },
        {
          "internalType": "enum ElectionManager.PrivacyMode",
          "name": "privacyMode",
          "type": "uint8"
        },
        {
          "internalType": "uint256",
          "name": "totalVotes",
          "type": "uint256"
        },
        {
          "internalType": "string",
          "name": "ipfsCID",
          "type": "string"
        },
        {
          "internalType": "bool",
          "name": "resultsPublished",
          "type": "bool"
        }
      ],
      "stateMutability": "view",
      "type": "function"
    },
    {
      "inputs": [
        {
          "internalType": "uint256",
          "name": "_electionId",
          "type": "uint256"
        },
        {
          "internalType": "uint256",
          "name": "_candidateId",
          "type": "uint256"
        }
      ],
      "name": "getCandidate",
      "outputs": [
        {
          "internalType": "string",
          "name": "name",
          "type": "string"
        },
        {
          "internalType": "string",
          "name": "description",
          "type": "string"
        },
        {
          "internalType": "uint256",
          "name": "voteCount",
          "type": "uint256"
        },
        {
          "internalType": "string",
          "name": "ipfsCID",
          "type": "string"
        }
      ],
      "stateMutability": "view",
      "type": "function"
    },
    {
      "inputs": [
        {
          "internalType": "uint256",
          "name": "_electionId",
          "type": "uint256"
        }
      ],
      "name": "getElection",
      "outputs": [
        {
          "internalType": "string",
          "name": "name",
          "type": "string"
        },
        {
          "internalType": "string",
          "name": "description",
          "type": "string"
        },
        {
          "internalType": "uint256",
          "name": "startTime",
          "type": "uint256"
        },
        {
          "internalType": "uint256",
          "name": "endTime",
          "type": "uint256"
        },
        {
          "internalType": "enum ElectionManager.ElectionStatus",
          "name": "status",
          "type": "uint8"
        },
        {
          "internalType": "uint256",
          "name": "totalVotes",
          "type": "uint256"
        },
        {
          "internalType": "uint256",
          "name": "candidateCount",
          "type": "uint256"
        }
      ],
      "stateMutability": "view",
      "type": "function"
    },
    {
      "inputs": [
        {
          "internalType": "bytes32",
          "name": "role",
          "type": "bytes32"
        }
      ],
      "name": "getRoleAdmin",
      "outputs": [
        {
          "internalType": "bytes32",
          "name": "",
          "type": "bytes32"
        }
      ],
      "stateMutability": "view",
      "type": "function"
    },
    {
      "inputs": [
        {
          "internalType": "uint256",
          "name": "_electionId",
          "type": "uint256"
        },
        {
          "internalType": "address",
          "name": "_voter",
          "type": "address"
        }
      ],
      "name": "getVoteCommitment",
      "outputs": [
        {
          "internalType": "bytes32",
          "name": "",
          "type": "bytes32"
        }
      ],
      "stateMutability": "view",
      "type": "function"
    },
    {
      "inputs": [
        {
          "internalType": "bytes32",
          "name": "role",
          "type": "bytes32"
        },
        {
          "internalType": "address",
          "name": "account",
          "type": "address"
        }
      ],
      "name": "grantRole",
      "outputs": [],
      "stateMutability": "nonpayable",
      "type": "function"
    },
    {
      "inputs": [
        {
          "internalType": "bytes32",
          "name": "role",
          "type": "bytes32"
        },
        {
          "internalType": "address",
          "name": "account",
          "type": "address"
        }
      ],
      "name": "hasRole",
      "outputs": [
        {
          "internalType": "bool",
          "name": "",
          "type": "bool"
        }
      ],
      "stateMutability": "view",
      "type": "function"
    },
    {
      "inputs": [
        {
          "internalType": "uint256",
          "name": "",
          "type": "uint256"
        },
        {
          "internalType": "address",
          "name": "",
          "type": "address"
        }
      ],
      "name": "hasVoted",
      "outputs": [
        {
          "internalType": "bool",
          "name": "",
          "type": "bool"
        }
      ],
      "stateMutability": "view",
      "type": "function"
    },
    {
      "inputs": [
        {
          "internalType": "uint256",
          "name": "_electionId",
          "type": "uint256"
        },
        {
          "internalType": "address",
          "name": "_voter",
          "type": "address"
        }
      ],
      "name": "hasVotedInElection",
      "outputs": [
        {
          "internalType": "bool",
          "name": "",
          "type": "bool"
        }
      ],
      "stateMutability": "view",
      "type": "function"
    },
    {
      "inputs": [
        {
          "internalType": "bytes32",
          "name": "role",
          "type": "bytes32"
        },
        {
          "internalType": "address",
          "name": "callerConfirmation",
          "type": "address"
        }
      ],
      "name": "renounceRole",
      "outputs": [],
      "stateMutability": "nonpayable",
      "type": "function"
    },
    {
      "inputs": [
        {
          "internalType": "uint256",
          "name": "_electionId",
          "type": "uint256"
        },
        {
          "internalType": "uint256",
          "name": "_candidateId",
          "type": "uint256"
        },
        {
          "internalType": "bytes32",
          "name": "_salt",
          "type": "bytes32"
        }
      ],
      "name": "revealVote",
      "outputs": [],
      "stateMutability": "nonpayable",
      "type": "function"
    },
    {
      "inputs": [
        {
          "internalType": "bytes32",
          "name": "role",
          "type": "bytes32"
        },
        {
          "internalType": "address",
          "name": "account",
          "type": "address"
        }
      ],
      "name": "revokeRole",
      "outputs": [],
      "stateMutability": "nonpayable",
      "type": "function"
    },
    {
      "inputs": [
        {
          "internalType": "uint256",
          "name": "_electionId",
          "type": "uint256"
        }
      ],
      "name": "startElection",
      "outputs": [],
      "stateMutability": "nonpayable",
      "type": "function"
    },
    {
      "inputs": [
        {
          "internalType": "uint256",
          "name": "_electionId",
          "type": "uint256"
        },
        {
          "internalType": "bytes32",
          "name": "_voteCommitment",
          "type": "bytes32"
        }
      ],
      "name": "submitVote",
      "outputs": [],
      "stateMutability": "nonpayable",
      "type": "function"
    },
    {
      "inputs": [
        {
          "internalType": "bytes4",
          "name": "interfaceId",
          "type": "bytes4"
        }
      ],
      "name": "supportsInterface",
      "outputs": [
        {
          "internalType": "bool",
          "name": "",
          "type": "bool"
        }
      ],
      "stateMutability": "view",
      "type": "function"
    },
    {
      "inputs": [
        {
          "internalType": "uint256",
          "name": "_electionId",
          "type": "uint256"
        }
      ],
      "name": "tallyElection",
      "outputs": [],
      "stateMutability": "nonpayable",
      "type": "function"
    },
    {
      "inputs": [],
      "name": "voterRegistry",
      "outputs": [
        {
          "internalType": "contract VoterRegistry",
          "name": "",
          "type": "address"
        }
      ],
      "stateMutability": "view",
      "type": "function"
    },
    {
      "inputs": [
        {
          "internalType": "uint256",
          "name": "",
          "type": "uint256"
        },
        {
          "internalType": "address",
          "name": "",
          "type": "address"
        }
      ],
      "name": "votes",
      "outputs": [
        {
          "internalType": "bytes32",
          "name": "voteCommitment",
          "type": "bytes32"
        },
        {
          "internalType": "uint256",
          "name": "timestamp",
          "type": "uint256"
        },
        {
          "internalType": "bool",
          "name": "revealed",
          "type": "bool"
        },
        {
          "internalType": "uint256",
          "name": "revealedCandidateId",
          "type": "uint256"
        }
      ],
      "stateMutability": "view",
      "type": "function"
    }
  ],
  "bytecode": "0x608034620000ee57601f6200263e38819003918201601f19168301916001600160401b03831184841017620000f357808492602094604052833981010312620000ee57516001600160a01b03811690819003620000ee57600180558015620000a957600280546001600160a01b031916919091179055620000803362000109565b506200008c3362000189565b5062000098336200022b565b506040516123559081620002c98239f35b60405162461bcd60e51b815260206004820152601860248201527f496e76616c6964207265676973747279206164647265737300000000000000006044820152606490fd5b600080fd5b634e487b7160e01b600052604160045260246000fd5b6001600160a01b031660008181527fad3228b676f7d3cd4284a5443f17f1962b36e491b30a40b2405849e597ba5fb5602052604081205490919060ff166200018557818052816020526040822081835260205260408220600160ff1982541617905533916000805160206200261e8339815191528180a4600190565b5090565b6001600160a01b031660008181527f7d7ffb7a348e1c6a02869081a26547b49160dd3df72d1d75a570eb9b698292ec60205260408120549091907fa49807205ce4d355092ef5a8a18f56e8913cf4a201fbe287825b095693c217759060ff166200022657808352826020526040832082845260205260408320600160ff198254161790556000805160206200261e833981519152339380a4600190565b505090565b6001600160a01b031660008181527f17c1a0b4ef27449c39cdbba275446a9ab9a4608d1d16c8eb425bd3bcfa3c862960205260408120549091907f7378a0511133229f838d56e2f9c6feccdff7b4cf063897a326e203a88bfc5cb99060ff166200022657808352826020526040832082845260205260408320600160ff198254161790556000805160206200261e833981519152339380a460019056fe608080604052600436101561001357600080fd5b60003560e01c90816301ffc9a714611d9f5750806309e33d0714611cc75780631d2cd64414611a01578063248a9ca3146119d25780632f2ff15d1461199357806336568abe1461194c57806343859632146117cf5780634bd46448146118485780635824bf301461181c5780635bc261fa146117cf5780635e6fef01146116ee5780636d32dc4b1461158557806375b238fc1461154a5780637de142421461149e57806391d1485414611451578063997d2830146114335780639d710777146112ef578063a217fddf146112d3578063a6a1e3f114610cc3578063ac8f38c814610985578063be60040e1461095c578063c202dbf7146108bd578063c67764b6146107b7578063cd080a671461077c578063ce4a2743146101fd578063d23254b41461018e5763d547741f1461014857600080fd5b3461018957604036600319011261018957610187600435610167611df2565b90806000526000602052610182600160406000200154612073565b612117565b005b600080fd5b34610189576040366003190112610189576101a7611df2565b600435600052600760205260406000209060018060a01b031660005260205260806040600020805490600181015490600360ff600283015416910154916040519384526020840152151560408301526060820152f35b34610189576080366003190112610189576024356001600160401b0381116101895761022d903690600401611fa3565b6044356001600160401b0381116101895761024c903690600401611fa3565b906064356001600160401b0381116101895761026c903690600401611fa3565b91610275611ff9565b610284600354600435106121f9565b600435600052600460205260ff60046040600020015416600481101561076657610721576102b48251151561218c565b60043560005260066020526040600020928354936102d1856121c8565b9055604051906102e082611e98565b84825260208201928484526040830152606082015260006080820152600160a0820152600435600052600560205260406000208460005260205260406000209181518355518051906001600160401b03821161056b5781906103456001860154611e5e565b601f81116106ce575b50602090601f831160011461065c57600092610651575b50508160011b916000199060031b1c19161760018301555b60408101518051906001600160401b03821161056b5781906103a26002860154611e5e565b601f81116105fe575b50602090601f831160011461058c57600092610581575b50508160011b916000199060031b1c19161760028301555b60608101518051906001600160401b03821161056b576103fd6003850154611e5e565b601f8111610524575b50602090601f83116001146104ad57928260059360a09361046397966000926104a2575b50508160011b916000199060031b1c19161760038501555b608081015160048501550151151591019060ff801983541691151516179055565b7fed8911b3df733b7d5f75724158e54478ea12e30f49c9d31b5261879f5b76586f604051602081528061049d600435946020830190611e1e565b0390a3005b01519050898061042a565b90601f198316916003860160005260206000209260005b81811061050c57509360a09361046397969360019383600598106104f3575b505050811b016003850155610442565b015160001960f88460031b161c191690558980806104e3565b929360206001819287860151815501950193016104c4565b600385016000526020600020601f840160051c810160208510610564575b601f830160051c82018110610558575050610406565b60008155600101610542565b5080610542565b634e487b7160e01b600052604160045260246000fd5b0151905086806103c2565b9250600285016000526020600020906000935b601f19841685106105e3576001945083601f198116106105ca575b505050811b0160028301556103da565b015160001960f88460031b161c191690558680806105ba565b8181015183556020948501946001909301929091019061059f565b909150600285016000526020600020601f840160051c81016020851061064a575b90849392915b601f830160051c8201811061063b5750506103ab565b60008155859450600101610625565b508061061f565b015190508680610365565b9250600185016000526020600020906000935b601f19841685106106b3576001945083601f1981161061069a575b505050811b01600183015561037d565b015160001960f88460031b161c1916905586808061068a565b8181015183556020948501946001909301929091019061066f565b909150600185016000526020600020601f840160051c81016020851061071a575b90849392915b601f830160051c8201811061070b57505061034e565b600081558594506001016106f5565b50806106ef565b60405162461bcd60e51b815260206004820152601960248201527f43616e6e6f74206164642063616e64696461746573206e6f77000000000000006044820152606490fd5b634e487b7160e01b600052602160045260246000fd5b346101895760003660031901126101895760206040517f7378a0511133229f838d56e2f9c6feccdff7b4cf063897a326e203a88bfc5cb98152f35b34610189576020366003190112610189576004356107d3611ff9565b6107e060035482106121f9565b80600052600460205260406000206004810180549160ff83169060048210156107665761081160026007931461229d565b0191825460ff811661088657600192600360ff1980941617905516179055807fe225b032df2b2773d30e627221cb8bb3444503cb42a24d5beede224ded7997606020604051428152a27f118f959a74f702cdc24614ce54eaada8f5b8e1b01a9bcf1d1b2fe673bedc51476020604051428152a2005b60405162461bcd60e51b815260206004820152600f60248201526e105b1c9958591e481d185b1b1a5959608a1b6044820152606490fd5b34610189576040366003190112610189576004356108d9611df2565b816000526020916008835260406000209160018060a01b03169182600052835260ff604060002054161561092757600052600782526040600020906000528152604060002054604051908152f35b60405162461bcd60e51b815260048101849052600d60248201526c139bc81d9bdd1948199bdd5b99609a1b6044820152606490fd5b34610189576000366003190112610189576002546040516001600160a01b039091168152602090f35b34610189576040366003190112610189576004356024908135916109a761227a565b6109b460035483106121f9565b816000526020906004825260406000209060ff6004830154166004811015610cae5760016109e29114612238565b60028201544210610c745760038201544211610c40578360005260088352604060002033600052835260ff60406000205416610c0d5760025460405163108979fd60e21b81523360048201529084908290849082906001600160a01b03165afa908115610c0157600091610bcb575b5015610b91578415610b59576040519060808201908282106001600160401b03831117610b45575090600592916040528581526003848201428152610ada604084016000815260608501926000845289600052600789526040600020336000528952604060002095518655516001860155511515600285019060ff801983541691151516179055565b51910155836000526008835260406000203360005283526040600020600160ff1982541617905501610b0c81546121c8565b905560405192835242908301527f17136284dc4f3c70a7b8fb485be479ba00d7a14578bc2abec6817acb9ae11e8460403393a360018055005b634e487b7160e01b60009081526041600452fd5b8260126064926040519262461bcd60e51b8452600484015282015271125b9d985b1a590818dbdb5b5a5d1b595b9d60721b6044820152fd5b8260146064926040519262461bcd60e51b84526004840152820152734e6f7420656c696769626c6520746f20766f746560601b6044820152fd5b90508381813d8311610bfa575b610be28183611ecf565b81010312610189575180151581036101895786610a51565b503d610bd8565b6040513d6000823e3d90fd5b82600d6064926040519262461bcd60e51b845260048401528201526c105b1c9958591e481d9bdd1959609a1b6044820152fd5b82600e6064926040519262461bcd60e51b845260048401528201526d115b1958dd1a5bdb88195b99195960921b6044820152fd5b8260146064926040519262461bcd60e51b8452600484015282015273115b1958dd1a5bdb881b9bdd081cdd185c9d195960621b6044820152fd5b50634e487b7160e01b60009081526021600452fd5b346101895760c0366003190112610189576004356001600160401b03811161018957610cf3903690600401611fa3565b6024356001600160401b03811161018957610d12903690600401611fa3565b600360843510156101895760a4356001600160401b03811161018957610d3c903690600401611fa3565b90610d45611ff9565b42604435111561128e57604435606435111561123f57610d678351151561218c565b60035491610d74836121c8565b60035560405191610d8483611eb3565b84835260208301526044356040830152606435606083015260006080830152610db260843560a084016121ed565b600060c083015260e0820152600061010082015281600052600460205260406000209080518051906001600160401b03821161056b578190610df48554611e5e565b601f81116111ef575b50602090601f831160011461118357600092611178575b50508160011b916000199060031b1c19161782555b60208101518051906001600160401b03821161056b578190610e4e6001860154611e5e565b601f8111611125575b50602090601f83116001146110b3576000926110a8575b50508160011b916000199060031b1c19161760018301555b6040810151600283015560608101516003830155600482016080820151600481101561076657815460a084015160038110156107665761ff0060ff9160081b1692169061ffff19161717905560c0810151600583015560e08101518051906001600160401b03821161056b57610eff6006850154611e5e565b601f8111611061575b5091849391602096938790601f8311600114610fc1576101007fe7a0aae5d733e07e246dea86213a1ac1b0aa8554bde889bb75c12752f44e53d9969484610f8895610f9c9895600795600092610fb6575b50508160011b916000199060031b1c19161760068501555b0151151591019060ff801983541691151516179055565b604051918291606083526060830190611e1e565b6044358783015260643560408301520390a2604051908152f35b015190508d80610f59565b9060068501600052886000209160005b601f198516811061104757507fe7a0aae5d733e07e246dea86213a1ac1b0aa8554bde889bb75c12752f44e53d99694600185610f9c989560079561010095610f8899601f1981161061102e575b505050811b016006850155610f71565b015160001960f88460031b161c191690558d808061101e565b818301518455899850600190930192918a01918a01610fd1565b600685016000526020600020601f840160051c8101602085106110a1575b601f830160051c82018110611095575050610f08565b6000815560010161107f565b508061107f565b015190508680610e6e565b9250600185016000526020600020906000935b601f198416851061110a576001945083601f198116106110f1575b505050811b016001830155610e86565b015160001960f88460031b161c191690558680806110e1565b818101518355602094850194600190930192909101906110c6565b909150600185016000526020600020601f840160051c810160208510611171575b90849392915b601f830160051c82018110611162575050610e57565b6000815585945060010161114c565b5080611146565b015190508680610e14565b9250846000526020600020906000935b601f19841685106111d4576001945083601f198116106111bb575b505050811b018255610e29565b015160001960f88460031b161c191690558680806111ae565b81810151835560209485019460019093019290910190611193565b909150846000526020600020601f840160051c810160208510611238575b90849392915b601f830160051c82018110611229575050610dfd565b60008155859450600101611213565b508061120d565b60405162461bcd60e51b815260206004820152602160248201527f456e642074696d65206d7573742062652061667465722073746172742074696d6044820152606560f81b6064820152608490fd5b60405162461bcd60e51b815260206004820152601c60248201527f53746172742074696d65206d75737420626520696e20667574757265000000006044820152606490fd5b3461018957600036600319011261018957602060405160008152f35b346101895760203660031901126101895760043561131060035482106121f9565b8060005260046020526040600020906040519161132c83611eb3565b61133581611ef0565b835261134360018201611ef0565b9160208401928352600282015490604085019182526003830154926060860193845260048101549560ff871696608082019760048110156107665788526113939060081c60ff1660a083016121ed565b60ff600760058401549360c084019485526113b060068201611ef0565b60e0850152015416151561010082015251945192519351955160048110156107665761140296611425925193600052600660205261141060406000205495604051998a9960e08b5260e08b0190611e1e565b9089820360208b0152611e1e565b95604088015260608701526080860190611f96565b60a084015260c08301520390f35b34610189576000366003190112610189576020600354604051908152f35b346101895760403660031901126101895761146a611df2565b600435600052600060205260406000209060018060a01b0316600052602052602060ff604060002054166040519015158152f35b34610189576114ac36611e08565b906000526005602052604060002090600052602052604060002080546114d460018301611ef0565b916114e160028201611ef0565b6115396114f060038401611ef0565b61152b60ff60056004870154960154169361151d604051988998895260c060208a015260c0890190611e1e565b908782036040890152611e1e565b908582036060870152611e1e565b916080840152151560a08301520390f35b346101895760003660031901126101895760206040517fa49807205ce4d355092ef5a8a18f56e8913cf4a201fbe287825b095693c217758152f35b346101895760208060031936011261018957600435906115a3611ff9565b6115b060035483106121f9565b81600052600481526040600020600481019081549060ff82166004811015610766576116a95760020154421061166f57836000526006835260026040600020541061162a5760ff191660011790556040514281527fff6a30dd22f5e8b783044c7d895a6e8592b55c56f139978d44dc39daf596731f9190a2005b60405162461bcd60e51b815260048101849052601a60248201527f4e656564206174206c6561737420322063616e646964617465730000000000006044820152606490fd5b60405162461bcd60e51b8152600481018490526012602482015271151bdbc819585c9b1e481d1bc81cdd185c9d60721b6044820152606490fd5b60405162461bcd60e51b815260048101859052601860248201527f456c656374696f6e20616c7265616479207374617274656400000000000000006044820152606490fd5b34610189576020366003190112610189576004356000526004602052604060002061171881611ef0565b9061172560018201611ef0565b60028201549160038101549260048201549161179c60ff8460081c169360058301549661178460ff600761175b60068801611ef0565b96015416976117766040519b8c6101208091528d0190611e1e565b908b820360208d0152611e1e565b9460408a0152606089015260ff608089019116611f96565b60038310156107665785946117c29360a087015260c086015284820360e0860152611e1e565b9015156101008301520390f35b34610189576040366003190112610189576117e8611df2565b600435600052600860205260406000209060018060a01b0316600052602052602060ff604060002054166040519015158152f35b346101895760203660031901126101895760043560005260066020526020604060002054604051908152f35b346101895761192861185936611e08565b61186660035483106121f9565b8160005260209160058352604060002082600052835261189060ff600560406000200154166122df565b60005260058252604060002090600052815261194860406000206040516118b681611e98565b815481526119356118c960018401611ef0565b948083019586526118dc60028501611ef0565b95604084019687526118f060038601611ef0565b9384606082015260a060ff60056004890154988960808601520154161515910152519551604051978897608089526080890190611e1e565b9187830390880152611e1e565b9160408501528382036060850152611e1e565b0390f35b3461018957604036600319011261018957611965611df2565b336001600160a01b038216036119815761018790600435612117565b60405163334bd91960e11b8152600490fd5b34610189576040366003190112610189576101876004356119b2611df2565b908060005260006020526119cd600160406000200154612073565b612099565b346101895760203660031901126101895760043560005260006020526020600160406000200154604051908152f35b3461018957606036600319011261018957600435602490813591611a2361227a565b611a3060035483106121f9565b816000526020906004825260046040600020015460ff81166004811015611cb25790611a60600260ff931461229d565b60081c166003811015610cae57600103611c76578260005260088252604060002033600052825260ff6040600020541615611c3f578260005260078252604060002033600052825260ff60026040600020015416611c095782600052600582526040600020846000528252611adf60ff600560406000200154166122df565b60405182810185815260443560408301523360601b60608301526054825260808201928284106001600160401b03851117610b45575082604052815190208460005260078452604060002033600052845260406000205403611bd85750507fd5232b050e3221ade5a3653733191681ef3bde39c4530d87c9bb74004f99dadc90826000526007815260406000203360005281526002604060002001600160ff198254161790558260005260078152604060002033600052815283600360406000200155826000526005815260406000208460005281526004604060002001611bc781546121c8565b90556040519384523393a360018055005b60c46d125b9d985b1a59081c995d99585b60921b9160649462461bcd60e51b85526084820152600e60a48201520152fd5b9060106064926040519262461bcd60e51b845260048401528201526f105b1c9958591e481c995d99585b195960821b6044820152fd5b9060116064926040519262461bcd60e51b8452600484015282015270139bc81d9bdd19481d1bc81c995d99585b607a1b6044820152fd5b9060166064926040519262461bcd60e51b84526004840152820152754e6f7420636f6d6d69742d72657665616c206d6f646560501b6044820152fd5b82634e487b7160e01b60005260216004526000fd5b3461018957602036600319011261018957600435611ce3611ff9565b611cf060035482106121f9565b8060005260046020526040600020600481019081549060ff821690600482101561076657611d22600160039314612238565b0154421115611d615760029060ff19161790557fd3461d57d954b89a789e6fbd29ff23c87fef073eae45cc372d7e26cb145943536020604051428152a2005b60405162461bcd60e51b8152602060048201526016602482015275456c656374696f6e207374696c6c206f6e676f696e6760501b6044820152606490fd5b34610189576020366003190112610189576004359063ffffffff60e01b821680920361018957602091637965db0b60e01b8114908115611de1575b5015158152f35b6301ffc9a760e01b14905083611dda565b602435906001600160a01b038216820361018957565b6040906003190112610189576004359060243590565b919082519283825260005b848110611e4a575050826000602080949584010152601f8019910116010190565b602081830181015184830182015201611e29565b90600182811c92168015611e8e575b6020831014611e7857565b634e487b7160e01b600052602260045260246000fd5b91607f1691611e6d565b60c081019081106001600160401b0382111761056b57604052565b61012081019081106001600160401b0382111761056b57604052565b90601f801991011681019081106001600160401b0382111761056b57604052565b9060405191826000825492611f0484611e5e565b908184526001948581169081600014611f735750600114611f30575b5050611f2e92500383611ecf565b565b9093915060005260209081600020936000915b818310611f5b575050611f2e93508201013880611f20565b85548884018501529485019487945091830191611f43565b915050611f2e94506020925060ff191682840152151560051b8201013880611f20565b9060048210156107665752565b81601f82011215610189578035906001600160401b03821161056b5760405192611fd7601f8401601f191660200185611ecf565b8284526020838301011161018957816000926020809301838601378301015290565b3360009081527f17c1a0b4ef27449c39cdbba275446a9ab9a4608d1d16c8eb425bd3bcfa3c862960205260409020547f7378a0511133229f838d56e2f9c6feccdff7b4cf063897a326e203a88bfc5cb99060ff16156120555750565b6044906040519063e2517d3f60e01b82523360048301526024820152fd5b80600052600060205260406000203360005260205260ff60406000205416156120555750565b9060009180835282602052604083209160018060a01b03169182845260205260ff6040842054161560001461211257808352826020526040832082845260205260408320600160ff198254161790557f2f8788117e7eff1d82e926ec794901d17c78024a50270940304540a733656f0d339380a4600190565b505090565b9060009180835282602052604083209160018060a01b03169182845260205260ff6040842054166000146121125780835282602052604083208284526020526040832060ff1981541690557ff6391f5c32d9c69d2a47ea670b442974b53935d1edc7fd64eb21e047a839171b339380a4600190565b1561219357565b60405162461bcd60e51b815260206004820152600d60248201526c13985b59481c995c5d5a5c9959609a1b6044820152606490fd5b60001981146121d75760010190565b634e487b7160e01b600052601160045260246000fd5b60038210156107665752565b1561220057565b60405162461bcd60e51b815260206004820152601060248201526f24b73b30b634b21032b632b1ba34b7b760811b6044820152606490fd5b1561223f57565b60405162461bcd60e51b8152602060048201526013602482015272456c656374696f6e206e6f742061637469766560681b6044820152606490fd5b60026001541461228b576002600155565b604051633ee5aeb560e01b8152600490fd5b156122a457565b60405162461bcd60e51b8152602060048201526013602482015272115b1958dd1a5bdb881b9bdd0818db1bdcd959606a1b6044820152606490fd5b156122e657565b60405162461bcd60e51b8152602060048201526011602482015270496e76616c69642063616e64696461746560781b6044820152606490fdfea26469706673582212200c0f1a2c7fdf760969748e5e529a4894f01cb6db5ccf60ea775b987865f2881264736f6c634300081400332f8788117e7eff1d82e926ec794901d17c78024a50270940304540a733656f0d",
  "linkReferences": {},
  "deployedLinkReferences": {}
}