{
  "_format": "hh-sol-artifact-1",
  "contractName": "VoterRegistry",
  "sourceName": "contracts/VoterRegistry.sol",
  "abi": [
    {
      "inputs": [],
      "stateMutability": "nonpayable",
      "type": "constructor"
    },
    {
      "inputs": [],
      "name": "AccessControlBadConfirmation",
      "type": "error"
    },
    {
      "inputs": [
        {
          "internalType": "address",
          "name": "account",
          "type": "address"
        },
        {
          "internalType": "bytes32",
          "name": "neededRole",
          "type": "bytes32"
        }
      ],
      "name": "AccessControlUnauthorizedAccount",
      "type": "error"
    },
    {
      "inputs": [],
      "name": "ReentrancyGuardReentrantCall",
      "type": "error"
    },
    {
      "anonymous": false,
      "inputs": [
        {
          "indexed": true,
          "internalType": "bytes32",
          "name": "role",
          "type": "bytes32"
        },
        {
          "indexed": true,
          "internalType": "bytes32",
          "name": "previousAdminRole",
          "type": "bytes32"
        },
        {
          "indexed": true,
          "internalType": "bytes32",
          "name": "newAdminRole",
          "type": "bytes32"
        }
      ],
      "name": "RoleAdminChanged",
      "type": "event"
    },
    {
      "anonymous": false,
      "inputs": [
        {
          "indexed": true,
          "internalType": "bytes32",
          "name": "role",
          "type": "bytes32"
        },
        {
          "indexed": true,
          "internalType": "address",
          "name": "account",
          "type": "address"
        },
        {
          "indexed": true,
          "internalType": "address",
          "name": "sender",
          "type": "address"
        }
      ],
      "name": "RoleGranted",
      "type": "event"
    },
    {
      "anonymous": false,
      "inputs": [
        {
          "indexed": true,
          "internalType": "bytes32",
          "name": "role",
          "type": "bytes32"
        },
        {
          "indexed": true,
          "internalType": "address",
          "name": "account",
          "type": "address"
        },
        {
          "indexed": true,
          "internalType": "address",
          "name": "sender",
          "type": "address"
        }
      ],
      "name": "RoleRevoked",
      "type": "event"
    },
    {
      "anonymous": false,
      "inputs": [
        {
          "indexed": true,
          "internalType": "address",
          "name": "voter",
          "type": "address"
        },
        {
          "indexed": false,
          "internalType": "bytes32",
          "name": "identityHash",
          "type": "bytes32"
        },
        {
          "indexed": false,
          "internalType": "uint256",
          "name": "timestamp",
          "type": "uint256"
        }
      ],
      "name": "VoterRegistered",
      "type": "event"
    },
    {
      "anonymous": false,
      "inputs": [
        {
          "indexed": true,
          "internalType": "address",
          "name": "voter",
          "type": "address"
        },
        {
          "indexed": false,
          "internalType": "uint256",
          "name": "timestamp",
          "type": "uint256"
        }
      ],
      "name": "VoterRevoked",
      "type": "event"
    },
    {
      "anonymous": false,
      "inputs": [
        {
          "indexed": true,
          "internalType": "address",
          "name": "voter",
          "type": "address"
        },
        {
          "indexed": false,
          "internalType": "uint256",
          "name": "timestamp",
          "type": "uint256"
        }
      ],
      "name": "VoterVerified",
      "type": "event"
    },
    {
      "inputs": [],
      "name": "ADMIN_ROLE",
      "outputs": [
        {
          "internalType": "bytes32",
          "name": "",
          "type": "bytes32"
        }
      ],
      "stateMutability": "view",
      "type": "function"
    },
    {
      "inputs": [],
      "name": "DEFAULT_ADMIN_ROLE",
      "outputs": [
        {
          "internalType": "bytes32",
          "name": "",
          "type": "bytes32"
        }
      ],
      "stateMutability": "view",
      "type": "function"
    },
    {
      "inputs": [],
      "name": "VERIFIER_ROLE",
      "outputs": [
        {
          "internalType": "bytes32",
          "name": "",
          "type": "bytes32"
        }
      ],
      "stateMutability": "view",
      "type": "function"
    },
    {
      "inputs": [
        {
          "internalType": "address[]",
          "name": "_voters",
          "type": "address[]"
        }
      ],
      "name": "batchVerifyVoters",
      "outputs": [],
      "stateMutability": "nonpayable",
      "type": "function"
    },
    {
      "inputs": [
        {
          "internalType": "bytes32",
          "name": "role",
          "type": "bytes32"
        }
      ],
      "name": "getRoleAdmin",
      "outputs": [
        {
          "internalType": "bytes32",
          "name": "",
          "type": "bytes32"
        }
      ],
      "stateMutability": "view",
      "type": "function"
    },
    {
      "inputs": [
        {
          "internalType": "address",
          "name": "_voter",
          "type": "address"
        }
      ],
      "name": "getVoter",
      "outputs": [
        {
          "internalType": "bool",
          "name": "isRegistered",
          "type": "bool"
        },
        {
          "internalType": "bool",
          "name": "isVerified",
          "type": "bool"
        },
        {
          "internalType": "bytes32",
          "name": "identityHash",
          "type": "bytes32"
        },
        {
          "internalType": "uint256",
          "name": "registrationTime",
          "type": "uint256"
        },
        {
          "internalType": "string",
          "name": "ipfsCID",
          "type": "string"
        }
      ],
      "stateMutability": "view",
      "type": "function"
    },
    {
      "inputs": [
        {
          "internalType": "bytes32",
          "name": "role",
          "type": "bytes32"
        },
        {
          "internalType": "address",
          "name": "account",
          "type": "address"
        }
      ],
      "name": "grantRole",
      "outputs": [],
      "stateMutability": "nonpayable",
      "type": "function"
    },
    {
      "inputs": [
        {
          "internalType": "bytes32",
          "name": "role",
          "type": "bytes32"
        },
        {
          "internalType": "address",
          "name": "account",
          "type": "address"
        }
      ],
      "name": "hasRole",
      "outputs": [
        {
          "internalType": "bool",
          "name": "",
          "type": "bool"
        }
      ],
      "stateMutability": "view",
      "type": "function"
    },
    {
      "inputs": [
        {
          "internalType": "address",
          "name": "_voter",
          "type": "address"
        }
      ],
      "name": "isEligibleVoter",
      "outputs": [
        {
          "internalType": "bool",
          "name": "",
          "type": "bool"
        }
      ],
      "stateMutability": "view",
      "type": "function"
    },
    {
      "inputs": [
        {
          "internalType": "bytes32",
          "name": "_identityHash",
          "type": "bytes32"
        },
        {
          "internalType": "string",
          "name": "_ipfsCID",
          "type": "string"
        }
      ],
      "name": "registerVoter",
      "outputs": [],
      "stateMutability": "nonpayable",
      "type": "function"
    },
    {
      "inputs": [
        {
          "internalType": "bytes32",
          "name": "role",
          "type": "bytes32"
        },
        {
          "internalType": "address",
          "name": "callerConfirmation",
          "type": "address"
        }
      ],
      "name": "renounceRole",
      "outputs": [],
      "stateMutability": "nonpayable",
      "type": "function"
    },
    {
      "inputs": [
        {
          "internalType": "bytes32",
          "name": "role",
          "type": "bytes32"
        },
        {
          "internalType": "address",
          "name": "account",
          "type": "address"
        }
      ],
      "name": "revokeRole",
      "outputs": [],
      "stateMutability": "nonpayable",
      "type": "function"
    },
    {
      "inputs": [
        {
          "internalType": "address",
          "name": "_voter",
          "type": "address"
        }
      ],
      "name": "revokeVoter",
      "outputs": [],
      "stateMutability": "nonpayable",
      "type": "function"
    },
    {
      "inputs": [
        {
          "internalType": "bytes4",
          "name": "interfaceId",
          "type": "bytes4"
        }
      ],
      "name": "supportsInterface",
      "outputs": [
        {
          "internalType": "bool",
          "name": "",
          "type": "bool"
        }
      ],
      "stateMutability": "view",
      "type": "function"
    },
    {
      "inputs": [],
      "name": "totalRegistered",
      "outputs": [
        {
          "internalType": "uint256",
          "name": "",
          "type": "uint256"
        }
      ],
      "stateMutability": "view",
      "type": "function"
    },
    {
      "inputs": [],
      "name": "totalVerified",
      "outputs": [
        {
          "internalType": "uint256",
          "name": "",
          "type": "uint256"
        }
      ],
      "stateMutability": "view",
      "type": "function"
    },
    {
      "inputs": [
        {
          "internalType": "bytes32",
          "name": "",
          "type": "bytes32"
        }
      ],
      "name": "usedIdentityHashes",
      "outputs": [
        {
          "internalType": "bool",
          "name": "",
          "type": "bool"
        }
      ],
      "stateMutability": "view",
      "type": "function"
    },
    {
      "inputs": [
        {
          "internalType": "address",
          "name": "_voter",
          "type": "address"
        }
      ],
      "name": "verifyVoter",
      "outputs": [],
      "stateMutability": "nonpayable",
      "type": "function"
    },
    {
      "inputs": [
        {
          "internalType": "address",
          "name": "",
          "type": "address"
        }
      ],
      "name": "voters",
      "outputs": [
        {
          "internalType": "bool",
          "name": "isRegistered",
          "type": "bool"
        },
        {
          "internalType": "bool",
          "name": "isVerified",
          "type": "bool"
        },
        {
          "internalType": "bytes32",
          "name": "identityHash",
          "type": "bytes32"
        },
        {
          "internalType": "uint256",
          "name": "registrationTime",
          "type": "uint256"
        },
        {
          "internalType": "string",
          "name": "ipfsCID",
          "type": "string"
        }
      ],
      "stateMutability": "view",
      "type": "function"
    }
  ],
  "bytecode": "0x60806040523461003a57600180556100163361003f565b50610020336100bd565b5061002a3361015d565b5060405161104190816101f98239f35b600080fd5b6001600160a01b031660008181527fad3228b676f7d3cd4284a5443f17f1962b36e491b30a40b2405849e597ba5fb5602052604081205490919060ff166100b957818052816020526040822081835260205260408220600160ff19825416179055339160008051602061123a8339815191528180a4600190565b5090565b6001600160a01b031660008181527f7d7ffb7a348e1c6a02869081a26547b49160dd3df72d1d75a570eb9b698292ec60205260408120549091907fa49807205ce4d355092ef5a8a18f56e8913cf4a201fbe287825b095693c217759060ff1661015857808352826020526040832082845260205260408320600160ff1982541617905560008051602061123a833981519152339380a4600190565b505090565b6001600160a01b031660008181527f1da0b5176dfe03406af5a6eed66ca01dda9b45ac4da671c3fa379cb93717ef8160205260408120549091907f0ce23c3e399818cfee81a7ab0880f714e53d7672b08df0fa62f2843416e1ea099060ff1661015857808352826020526040832082845260205260408320600160ff1982541617905560008051602061123a833981519152339380a460019056fe608060408181526004918236101561001657600080fd5b600092833560e01c91826301ffc9a714610b945750816309bd095014610ab1578163248a9ca314610a875781632a1fac16146109015781632f2ff15d146108d757816336568abe146108915781634225e7f41461083d57816371c1f4d9146104dd57816375b238fc146104a2578163817585571461047557816388840a2e1461031257816391d14854146102cc578163927416c0146102ae578163a217fddf14610293578163a3ec138d14610231578163d4f50f9814610194578163d547741f1461015157508063e7705db6146101175763fe9eba15146100f657600080fd5b346101135781600319360112610113576020906005549051908152f35b5080fd5b5034610113578160031936011261011357602090517f0ce23c3e399818cfee81a7ab0880f714e53d7672b08df0fa62f2843416e1ea098152f35b9190503461019057806003193601126101905761018c91356101876001610176610c02565b938387528660205286200154610e2c565b610ed0565b5080f35b8280fd5b505034610113576020366003190112610113579081906001600160a01b036101ba610be7565b1681526002602052209061022d81516101d281610c18565b83549260ff84161515825260ff602083019460081c161515845260018501549481830195865261021060036002830154926060860193845201610ca6565b928360808201525115159451151595519051915195869586610d4c565b0390f35b505034610113576020366003190112610113579081906001600160a01b03610257610be7565b1681526002602052209061022d82549160018401549361027e600360028301549201610ca6565b9151948460ff80889760081c16911686610d4c565b50503461011357816003193601126101135751908152602090f35b90503461019057826003193601126101905760209250549051908152f35b9050346101905781600319360112610190578160209360ff926102ed610c02565b903582528186528282206001600160a01b039091168252855220549151911615158152f35b91905034610190576020806003193601126104715782359067ffffffffffffffff9384831161046957366023840112156104695782013593841161046d5760248201936005926024369183861b0101116104695761036e610db2565b855b81811061037b578680f35b6103ca906001600160a01b038061039b61039684878c610fc4565b610fea565b1689526002808652878a2054899060ff908116908486898461043f575b5050505090506103cf575b5050610f5c565b610370565b816103de61039685888d610fc4565b168a52855286892061010061ff00198254161790556103fd8654610f5c565b86557f945486efe706b7939911cd647343f3c1118cd63847a1f1b3d5a06b05120a5bcd8561042f61039685888d610fc4565b8951428152931692a238806103c3565b61039692945061044f9395610fc4565b168b52818752888b205460081c16158990388486896103b8565b8580fd5b8480fd5b8380fd5b905034610190576020366003190112610190578160209360ff923581526003855220541690519015158152f35b505034610113578160031936011261011357602090517fa49807205ce4d355092ef5a8a18f56e8913cf4a201fbe287825b095693c217758152f35b83915034610113578260031936011261011357803560249384359267ffffffffffffffff90818511610469573660238601121561046957848101359180831161082b57835190602093601f199761053b868a601f8501160185610c4a565b818452368b838301011161082757818a928c8893018387013784010152600196600288541461081757600288553389526002855260ff868a2054166107e0578689526003855260ff868a2054166107a657861561076c576003865161059f81610c18565b8981528a878201818152898301908b82528a606085019342855260808601998a5233815260028c5220935115159060ff61ff0086549251151560081b1692169061ffff191617178355518b830155516002820155019251998a5192831161075b575061060b8354610c6c565b601f8111610722575b508490601f83116001146106a257508190899a7f091358cc6c9d9ca913b5548b793894caf50674cd0853947dbaafd5bb7cebe0eb98999a92610697575b5050600019600383901b1c191690881b1790555b848752600382528287208660ff198254161790556106838154610f5c565b9055815193845242908401523392a2805580f35b015190508a80610651565b821699838a52858a209a8a5b81811061070d575091899a9b91847f091358cc6c9d9ca913b5548b793894caf50674cd0853947dbaafd5bb7cebe0eb9a9b9594106106f4575b505050811b019055610665565b015160001960f88460031b161c191690558a80806106e7565b828401518d559b8a019b9287019287016106ae565b61074b90848b52868b20601f850160051c810191888610610751575b601f0160051c0190610f45565b8a610614565b909150819061073e565b634e487b7160e01b8a526041855289fd5b855162461bcd60e51b81528085018690526015818c015274092dcecc2d8d2c840d2c8cadce8d2e8f240d0c2e6d605b1b6044820152606490fd5b855162461bcd60e51b81528085018690526015818c0152741259195b9d1a5d1e48185b1c9958591e481d5cd959605a1b6044820152606490fd5b855162461bcd60e51b81528085018690526012818c015271105b1c9958591e481c9959da5cdd195c995960721b6044820152606490fd5b8551633ee5aeb560e01b81528490fd5b8980fd5b634e487b7160e01b8752604182528787fd5b5050346101135760203660031901126101135760209181906001600160a01b03610865610be7565b1681526002845220549060ff82169182610883575b50519015158152f35b60081c60ff1691503861087a565b8383346101135780600319360112610113576108ab610c02565b90336001600160a01b038316036108c8575061018c919235610ed0565b5163334bd91960e11b81528390fd5b9190503461019057806003193601126101905761018c91356108fc6001610176610c02565b610e52565b9190503461019057602090816003193601126104715761091f610be7565b7fa49807205ce4d355092ef5a8a18f56e8913cf4a201fbe287825b095693c21775808652858452828620338752845260ff838720541615610a6957506001600160a01b0316808552600283528185205490937f63d4608dd4a9c8490c1cb4707a81d0ba78a7647c52d8d1a51f9b4252d62a69e19392916109a19060ff16610f81565b8486526002835260ff8287205460081c16610a56575b848652600283526001828720015486526003835281862060ff19815416905584865260028352856003838220828155826001820155826002820155016109fd8154610c6c565b80610a1a575b505050610a108154610ffe565b905551428152a280f35b82601f8211600114610a32575050555b853880610a03565b9091808252610a4f601f888420940160051c840160018501610f45565b5555610a2a565b610a61600554610ffe565b6005556109b7565b825163e2517d3f60e01b815233818701526024810191909152604490fd5b90503461019057602036600319011261019057816020936001923581528085522001549051908152f35b91905034610190576020908160031936011261047157610acf610be7565b610ad7610db2565b6001600160a01b03168085526002835281852054909390610afa9060ff16610f81565b8385526002835260ff8286205460081c16610b605750907f945486efe706b7939911cd647343f3c1118cd63847a1f1b3d5a06b05120a5bcd918385526002825280852061010061ff0019825416179055610b55600554610f5c565b60055551428152a280f35b82606492519162461bcd60e51b8352820152601060248201526f105b1c9958591e481d995c9a599a595960821b6044820152fd5b849134610190576020366003190112610190573563ffffffff60e01b81168091036101905760209250637965db0b60e01b8114908115610bd6575b5015158152f35b6301ffc9a760e01b14905083610bcf565b600435906001600160a01b0382168203610bfd57565b600080fd5b602435906001600160a01b0382168203610bfd57565b60a0810190811067ffffffffffffffff821117610c3457604052565b634e487b7160e01b600052604160045260246000fd5b90601f8019910116810190811067ffffffffffffffff821117610c3457604052565b90600182811c92168015610c9c575b6020831014610c8657565b634e487b7160e01b600052602260045260246000fd5b91607f1691610c7b565b9060405191826000825492610cba84610c6c565b908184526001948581169081600014610d295750600114610ce6575b5050610ce492500383610c4a565b565b9093915060005260209081600020936000915b818310610d11575050610ce493508201013880610cd6565b85548884018501529485019487945091830191610cf9565b915050610ce494506020925060ff191682840152151560051b8201013880610cd6565b939195949290151584526020951515868501526040840152606083015260a060808301528051908160a084015260005b828110610d9e57505060c09293506000838284010152601f8019910116010190565b81810186015184820160c001528501610d7c565b3360009081527f1da0b5176dfe03406af5a6eed66ca01dda9b45ac4da671c3fa379cb93717ef8160205260409020547f0ce23c3e399818cfee81a7ab0880f714e53d7672b08df0fa62f2843416e1ea099060ff1615610e0e5750565b6044906040519063e2517d3f60e01b82523360048301526024820152fd5b80600052600060205260406000203360005260205260ff6040600020541615610e0e5750565b9060009180835282602052604083209160018060a01b03169182845260205260ff60408420541615600014610ecb57808352826020526040832082845260205260408320600160ff198254161790557f2f8788117e7eff1d82e926ec794901d17c78024a50270940304540a733656f0d339380a4600190565b505090565b9060009180835282602052604083209160018060a01b03169182845260205260ff604084205416600014610ecb5780835282602052604083208284526020526040832060ff1981541690557ff6391f5c32d9c69d2a47ea670b442974b53935d1edc7fd64eb21e047a839171b339380a4600190565b818110610f50575050565b60008155600101610f45565b6000198114610f6b5760010190565b634e487b7160e01b600052601160045260246000fd5b15610f8857565b60405162461bcd60e51b8152602060048201526014602482015273159bdd195c881b9bdd081c9959da5cdd195c995960621b6044820152606490fd5b9190811015610fd45760051b0190565b634e487b7160e01b600052603260045260246000fd5b356001600160a01b0381168103610bfd5790565b8015610f6b57600019019056fea2646970667358221220dc9d72b55407a8e24712c3525bd03c1d293c1e7ab02f6a7282ce2a8bb47c32ea64736f6c634300081400332f8788117e7eff1d82e926ec794901d17c78024a50270940304540a733656f0d",
  "linkReferences": {},
  "deployedLinkReferences": {}
}